:020000040800F2
:1000000000000220B10300080104000801040008F8
:1000100001040008010400080104000800000000B9
:1000200000000000000000000000000001040008C3
:100030000104000800000000010400080104000899
:10004000010400080104000801040008010400087C
:10005000010400080104000801040008010400086C
:10006000010400080104000801040008010400085C
:10007000010400080104000801040008010400084C
:10008000010400080104000801040008010400083C
:10009000010400080104000801040008010400082C
:1000A000010400080104000801040008010400081C
:1000B000010400080104000801040008010400080C
:1000C00001040008010400080104000801040008FC
:1000D00001040008010400080104000801040008EC
:1000E00001040008010400080104000801040008DC
:1000F00001040008010400080104000801040008CC
:1001000001040008010400080104000801040008BB
:1001100001040008010400080104000801040008AB
:10012000010400080104000801040008010400089B
:10013000010400080104000801040008010400088B
:10014000010400080104000801040008010400087B
:10015000010400080104000801040008010400086B
:10016000010400080104000801040008010400085B
:100170000104000801040008010400080000000058
:0801800001040008010400085D
:1001880010B5054C237833B9044B13B10448AFF3C9
:1001980000800123237010BD000000200000000033
:1001A800000500080C4B43B10C480D4910B5AFF3DE
:1001B80000800C48036823B910BD0A48036833B9A6
:1001C8007047094B002BF7D0BDE810401847064B85
:1001D800002BF5D0184700BF0000000000050008FC
:1001E800040000200000002000000000034613F86F
:1001F800012B002AFBD1181A0138704708B500F006
:100208002FF800F077F800F097F800F0A1F80A4B03
:1002180018600A4C0A22214600F02CF9084800F020
:1002280059F8204600F056F80A2000F049F84FF433
:10023800FA6000F0A1F8E8E7240000201C00002084
:100248001805000800EB5100B0FBF1F080B27047D0
:1002580010B5044608461146FFF7F4FFA06010BD2C
:1002680010B5134A136B43F001031363114B19685C
:1002780021F010011960196841F020011960196A0C
:1002880041F4E0611962136C43F4003313640A4CBF
:100298004FF4E13209492046FFF7DAFFE36843F0FB
:1002A8000803E360E36843F40053E36010BD00BF54
:1002B8000038024000000240004400400024F400DE
:1002C800034B1B6813F0800FFAD0014B586070473E
:1002D80000440040F8B50546FFF788FF07460024AC
:1002E80005E06E1C2878FFF7EBFF01343546BC4269
:1002F800F7DBF8BD0E4B1A6B42F001021A630D4A88
:10030800116841F040011160116841F080011160ED
:100318005A6C42F480725A64A3F58C3303225A63F0
:100328000022DA629A6842F001029A60704700BFC0
:100338000038024000000240044B9A6842F0020272
:100348009A609A6842F080429A60704700200140A3
:10035800034B1B6813F0020FFAD0014BD86C70479F
:1003680000200140034AD2F8883043F47003C2F8F1
:100378008830704700ED00E00A4B4FF47A525A601B
:1003880000229A600521196005E0064B1B6813F4EA
:10039800803FFAD001328242F7DB0022014B1A601B
:1003A800704700BF10E000E0DFF834D00D480E4978
:1003B8000E4A002302E0D458C4500433C4188C42B7
:1003C800F9D30B4A0B4C002301E013600432A2421C
:1003D800FBD3FFF7C7FF00F011F8FFF70FFF7047D7
:1003E8000000022000000020000000205405000842
:1003F8000000002028000020FEE7000070B50D4E28
:100408000D4CA41BA4100025A54209D10B4E0C4C81
:1004180000F072F8A41BA4100025A54205D170BDF8
:1004280056F8253098470135EEE756F825309847B5
:100438000135F2E74C0500084C0500084C0500089A
:1004480050050008931E222B10B50C4604D9002332
:100458000B701C46204610BD0A2A09D1002807DA6D
:100468002D230B7040420121214400F005F8F1E7EB
:100478000021F9E7FFF7E6BFF0B51E4C8BB0034645
:100488000F466D4604F1200E206861682E4603C6AB
:10049800083474453546F7D121793171911E2068A9
:1004A800306022294FF0000104D939700F463846D0
:1004B8000BB0F0BD781E0646B3FBF2F50DF1280E21
:1004C80002FB153373444C1C13F8283C06F8013F13
:1004D8002B4665B93D557A18CC1AA342E7DA447819
:1004E800157800F8015F013302F80149F4E7214665
:1004F800E2E700BF24050008F8B500BFF8BC08BC57
:100508009E467047F8B500BFF8BC08BC9E467047C9
:1005180053656E736F723A20000000003031323339
:100528003435363738396162636465666768696A85
:100538006B6C6D6E6F707172737475767778797A8B
:0405480000000000AF
:04054C00AD010008F5
:040550008901000815
:04000005080003B13B
:00000001FF
